:020000040800F2
:1000000000000220A10600089506000801770008FC
:1000100095060008950600089506000800000000F7
:10002000000000000000000000000000950600082D
:100030009506000800000000950600088576000877
:100040009506000895060008950600089506000824
:100050009506000895060008950600089506000814
:100060009506000895060008950600083D710008F1
:1000700049710008F54E00085571000861710008CB
:1000800099520108755B000895060008950600085E
:1000900095060008950600089506000895060008D4
:1000A00095060008950600089506000895060008C4
:1000B00025440108314401083D440108A95B0008BA
:1000C00095060008B55B0008950600086D3C010820
:1000D000793C0108CD500108F95001082D51010863
:1000E0009506000895060008000000009506000827
:1000F0009506000895060008950600089506000874
:10010000950600089506000849440108853C010849
:100110006151010895510108155200089506000823
:10012000FD51000809520008A93C0108DD3C010806
:10013000CD520108950600089506000895060008AE
:1001400000000000000000000000000000000000AF
:10015000950600089506000895060008C951010893
:10016000C15B00089506000895760008B97600087E
:1001700095060008DD76000895060008950600083B
:100180009506000895060008FD5101083152010846
:10019000913C01089D3C0108950600089506000861
:1001A00095060008950600089506000895060008C3
:1001B000A56D00089506000895060008950600083C
:1001C0009506000895060008094900081549000829
:1001D00095060008214900089506000895060008C4
:1001E0009506000895060008950600089506000883
:1001F0009506000895060008950600089506000873
:100200009506000895060008950600089506000862
:100210009506000895060008950600089506000852
:1002200095060008950600089506000800000000E5
:1002300095060008950600080000000095060008D5
:100240009506000895060008950600089506000822
:100250009506000895060008950600089506000812
:100260009506000895060008950600089506000802
:100270009506000895060008655201080000000078
:100280009506000895060008950600080000000085
:080290000000000095060008C3
:1002A00010B5054C237833B9044B13B10448AFF3B0
:1002B00000800123237010BD780700240000000097
:1002C00034E6010808B5034B1BB103490348AFF3FB
:1002D000008008BD000000007C07002434E601080F
:1002E000034613F8012B002AFBD1181A0138704776
:1002F00001F0FF01102A2BDB10F0070F08D010F8D7
:10030000013B013A8B422DD010F0070F42B3F6D1DA
:10031000F0B441EA012141EA014122F007047FF0F3
:1003200000070023F0E80256083C85EA010586EA4A
:10033000010685FA47F5A3FA87F586FA47F6A5FA86
:1003400087F68EB9EED1F0BC01F0FF0102F0070292
:1003500032B110F8013B013A83EA010313B1F8D13D
:100360000020704701387047002D06BF354603381E
:10037000073815F0010F07D1013015F4807F02BF57
:10038000013015F4C03F0130F0BC0138704700BFA8
:1003900053B94AB9002908BF00281CBF4FF0FF31EC
:1003A0004FF0FF3000F074B9ADF1080C6DE904CEE8
:1003B00000F006F8DDF804E0DDE9022304B0704740
:1003C0002DE9F047089D04468E46002B4DD18A4208
:1003D000944669D9B2FA82F252B101FA02F3C2F13B
:1003E000200120FA01F10CFA02FC41EA030E9440CC
:1003F0004FEA1C48210CBEFBF8F61FFA8CF708FBED
:1004000016E341EA034306FB07F199420AD91CEBC4
:10041000030306F1FF3080F01F81994240F21C81F6
:10042000023E63445B1AA4B2B3FBF8F008FB10333E
:1004300044EA034400FB07F7A7420AD91CEB040473
:1004400000F1FF3380F00A81A74240F20781644443
:10045000023840EA0640E41B00261DB1D4400023C8
:10046000C5E900433146BDE8F0878B4209D9002D2C
:1004700000F0EF800026C5E9000130463146BDE8B6
:10048000F087B3FA83F6002E4AD18B4202D3824220
:1004900000F2F980841A61EB030301209E46002DCF
:1004A000E0D0C5E9004EDDE702B9FFDEB2FA82F224
:1004B000002A40F09280A1EB0C014FEA1C471FFA82
:1004C0008CFE0126200CB1FBF7F307FB131140EA69
:1004D00001410EFB03F0884208D91CEB010103F136
:1004E000FF3802D2884200F2CB804346091AA4B2F8
:1004F000B1FBF7F007FB101144EA01440EFB00FECC
:10050000A64508D91CEB040400F1FF3102D2A64530
:1005100000F2BB800846A4EB0E0440EA03409CE7CF
:10052000C6F12007B34022FA07FC4CEA030C20FA7C
:1005300007F401FA06F31C43F9404FEA1C4900FA9C
:1005400006F3B1FBF9F8200C1FFA8CFE09FB181119
:1005500040EA014108FB0EF0884202FA06F20BD98C
:100560001CEB010108F1FF3A80F08880884240F2DC
:100570008580A8F102086144091AA4B2B1FBF9F020
:1005800009FB101144EA014100FB0EFE8E4508D91B
:100590001CEB010100F1FF346CD28E456AD90238A0
:1005A000614440EA0840A0FB0294A1EB0E01A14285
:1005B000C846A64656D353D05DB1B3EB080261EBF3
:1005C0000E0101FA07F722FA06F3F1401F43C5E9CD
:1005D000007100263146BDE8F087C2F12003D84003
:1005E0000CFA02FC21FA03F3914001434FEA1C4745
:1005F0001FFA8CFEB3FBF7F007FB10360B0C43EA37
:10060000064300FB0EF69E4204FA02F408D91CEBE6
:10061000030300F1FF382FD29E422DD902386344E4
:100620009B1B89B2B3FBF7F607FB163341EA034184
:1006300006FB0EF38B4208D91CEB010106F1FF38D3
:1006400016D28B4214D9023E6144C91A46EA0046CA
:1006500038E72E46284605E70646E3E61846F8E65C
:100660004B45A9D2B9EB020864EB0C0E0138A3E7A5
:100670004646EAE7204694E74046D1E7D0467BE786
:10068000023B614432E7304609E76444023842E7FE
:10069000704700BF684620F007018D46FEE7000066
:1006A00009480A4A0A49121A08B518F0FFFD094814
:1006B000094A0021121A18F007FE07F07DFA18F017
:1006C000C1FD02F0F1FAFEE70000002478070024E3
:1006D0007CE6010878070024288C0024002330B52C
:1006E0008B420AD0054A0468958924F81350D489AE
:1006F000426822F813400133F2E730BD940700242A
:100700007FB5012301A91030CDE903330223029301
:10071000002305934BF68033019304F013FE07B0DA
:100720005DF804FB037D73B504460D4600F1100629
:1007300013B1304604F0BAFE074B3046002D08BF17
:100740001D462368D4E90112009504F079FE0123C7
:10075000237502B070BD00BFDD060008103003F045
:1007600029BE08B5103003F0BBFD006808BD70B5A8
:1007700000F1100504462DED028B284604F5E076C5
:1007800003F0B2FD284603F0BDFD2046B0EE408ADE
:10079000FFF7E7FF07EE900A04F14005F8EE677AED
:1007A00088EE277A84ED867A2846203594ED860AED
:1007B00003F0C0FEB542F7D1BDEC028B70BD70B541
:1007C00000F1100504462DED028B284604F5E07675
:1007D00003F09CFD284603F095FD2046B0EE408ACC
:1007E000FFF7BFFF07EE900A04F14005F8EE677AC5
:1007F00088EE277A84ED867A2846203594ED860A9D
:1008000003F098FEB542F7D1BDEC028B70BD1030FD
:1008100003F078BD38B500F1400500F5E0742846D6
:10082000203503F063FEA542F9D138BD704700EBD7
:10083000411191ED130A7047F0B5114D07460E4670
:100840002DED028B89B0B7EE008A0FCD6C460FC438
:1008500095E80F0084E80F0007F114004EB9032259
:100860000B2104F0E5FA38EE400A09B0BDEC028B2A
:10087000F0BD08AB03EB860111F8242C0A21F0E748
:1008800044C10108F0B5144D89B007460E466C46C8
:100890000FCD0FC495E80F0084E80F001EB997ED47
:1008A0001B0A09B0F0BD08AB07F1140003EB860189
:1008B00011F8242C002104F0BBFAB7EE007BB7EE50
:1008C000C00AB0EE006B37EE407BBFEE000BA7EE28
:1008D000060BB7EEC00BE4E764C10108F0B5114D9B
:1008E00007460E462DED028B89B0B7EE008A0FCD7C
:1008F0006C460FC495E80F0084E80F0007F1140060
:100900004EB906220B2104F093FA38EE400A09B0E2
:10091000BDEC028BF0BD08AB03EB860111F8242C73
:100920000921F0E784C1010802220B21143004F0F0
:100930007FBA04220B21143004F07ABA01220B2171
:10094000143004F075BA00220B21143004F070BA90
:1009500005220B21143004F06BBAD0F81C02FFF70B
:10096000E1BE0000BB4B2DE9F0432DED028BC0F83A
:100970001C32ADF2C46D40F2011301260446ADF8FD
:100980001C30002306968DF81E3007F0CBF8054684
:1009900008B18DF81E6006A9204607F03DF86DBB32
:1009A00004F1080002F074FD082201230A2104F179
:1009B0000C008DF8852009228DF8903000238DF8E9
:1009C000872007228DF8913005238DF88920062293
:1009D0008DF88D1021A98DF884308DF886308DF832
:1009E00088308DF88A308DF88B208DF88C308DF81A
:1009F0008E308DF88F2005F05FFF01E0072DD3D1F9
:100A000001260323002517A904A821AF17950495F3
:100A1000CDE91B36904B189303F1007303F5407337
:100A200019934FF44173CDE91D56CDE91F65ADF81B
:100A3000683006F011FC894B0CA905A80F950595A7
:100A400008AD0C96CDE90D3610238DF8403005F039
:100A5000BDF8059904F1200002F018FC804B0FCB83
:100A600085E80F0004F110032946049A1D46184634
:100A700003F0FEFB2846132503F044FC2046B0EEAD
:100A8000408AFFF76EFE07EE900A3B46F8EE677A63
:100A900088EE277A84ED867A0B221A70FF225A702C
:100AA0000022C3E90122DA6003F114020B21117064
:100AB000FF2151700021D160C2E90111143203F10C
:100AC00050018A42F2D1013D03F15403E4D10DF10A
:100AD0004408644B464603F1180C1868083353F871
:100AE000041C3246634503C21646F6D100261EB1E9
:100AF000A6F10903022B72D802235B4A38460293FF
:100B00005A4B1B88ADF80430594B1B88ADF80030A8
:100B10001378527838F8161043EA0223082203F0BB
:100B200015FF013654370C2EE1D1324604F1400650
:100B300004F114070423B14621A9384603F044FF09
:100B4000082D76D052D86B1E062B67D94FF00008BF
:100B50005FFA88F20021384608F1010804F05CF9D8
:100B600094ED860A0146484603F08AFCB8F1080F66
:100B7000EED1013520360C2DE2D13E4B002501226D
:100B8000587819782B46009541EA002104F12C0091
:100B900004F0A6FD384B04F5E070012219785B786B
:100BA00041EA032103F0F2FC344B012204F5EC701E
:100BB00019785B7841EA032103F0E8FCD4F81C02C1
:100BC000FFF79EFD384604F007F929462046FFF757
:100BD000C4FE0DF2C46DBDEC028BBDE8F0830222B1
:100BE00038F81610384603F0A1FE9AE74FF00008D7
:100BF0005FFA88F23846E9B208F1010804F00CF90E
:100C000000230146DFED1E0A1A4694ED860A30469F
:100C100003F004FCB8F1080FEAD1AAE7E9B23846BC
:100C200004F0F0F894ED860A0146304603F028FC03
:100C30009FE72946384604F0E5F800230146DFED3A
:100C4000100A1A4694ED860A04F5A07003F0E6FB3C
:100C50008FE700BF9407002404020404010A010B7B
:100C6000A4C10108B4C1010840C3010848C3010878
:100C700044C3010802C2010800C20108FEC1010804
:100C80006F12033B054B30221A600022C3E9032296
:100C90001A75034A5A6060329A60704794070024BC
:100CA0000000003070477047704770470B22027099
:100CB000FF2242700022C0E90122C260704708B5DD
:100CC000837D1BB9BDE8084004F0F0BD04F0EEFDE3
:100CD00080F00100C0B208BDB7EE007AD0ED006A26
:100CE000C7EE267AD0ED086A77EEC77A37EE667AD5
:100CF00067EE877AC0ED097A704790ED0E7AD0EDF5
:100D0000027A87EE270A10B50446B1EE400A16F0C3
:100D1000ABFF94ED0D7AD4ED027A84ED0A0A87EEEA
:100D2000270AB1EE400A16F09FFF204684ED080A1C
:100D3000FFF7D2FF10BD90ED0E7AD0ED037A87EE6B
:100D4000270A10B50446B1EE400A16F08DFF84ED77
:100D50000B0A10BD90F83C307BB1D0ED017AD0ED9C
:100D6000006A87EEA67A77EEC77AB6EE007AF0EEE2
:100D7000E77A67EE877AC0ED047A704700224FF079
:100D80007C5102604FF07E52816142600022054931
:100D900042610261C2608260C1610262826242623B
:100DA000704700BFF4FD343F90ED087AB3EE041BAA
:100DB000B2EE040BB0EEC77A10B5B7EEC77A0446B0
:100DC0002DED108B87EE011B16F012FC94ED067AC8
:100DD000F7EEC08BB7EEC77A9FEDE90B27EE000B5D
:100DE00016F012FF2368B7EEC08B0B2B35D8DFE867
:100DF00013F00C00370037004D00720072008500C0
:100E00009C00C5002601CF016A02D4ED077A88EE66
:100E1000276AF7EE007A28EE088A36EE277A37EE50
:100E2000087AC7EE876A28EE267A77EE075A84EDAD
:100E3000017A84ED037A38EE677A77EEC67AC4EDEC
:100E4000025A37EE077A77EE887A27EE267A84ED13
:100E5000047A67EEA67AC4ED057ABDEC108B10BD5E
:100E6000F7EE007AC7EE886A36EEA76A87EE867AD2
:100E700077EEE67A67EE877A84ED027A84ED017A7E
:100E8000C4ED047A00236361E360E6E7D4ED077AFA
:100E900088EE276AF7EE007A36EE277AA8EE087A0F
:100EA000C7EE876AB8EE007A26EE877AC4ED016A4B
:100EB000C4ED036A84ED027ABFEE007A77EEC67A5B
:100EC000A8EE087AE8EE087A37EE077A27EE267A57
:100ED00084ED047ABDE7B7EE000A38EE007AC0EE82
:100EE000077A38EE400AB1EE677AC4ED017A20EE57
:100EF000270A84ED027A84ED040AC3E7D4ED077A69
:100F0000002388EE276AA360F7EE007A36EE277A90
:100F1000A8EE087AC7EE876A26EE267A84ED017A73
:100F2000B1EE477A84ED037AC6E7D4ED077AC8EECE
:100F3000275AF7EE007AF0EE676AE8EE086A35EEB7
:100F4000A77AA8EE087A87EE876ABFEE007A77EE76
:100F5000E57AA8EE087AE8EE087A37EE077A66EEC8
:100F6000866A27EE067A67EE867AC4ED016A84ED1A
:100F7000027AC4ED036A84ED047A6CE7D4ED085A72
:100F8000F7EE007A68EE086A94ED076AF5EEC05A4B
:100F9000C7EE864A36EEE77AF1EE10FA88EE865A08
:100FA00037EE077AB0EE676A26DBA4EE886A36EE83
:100FB000266AC7EE865AB0EE676AA5EE086A36EE74
:100FC000266A25EE877A26EE256A84ED027A84ED7C
:100FD000016AB0EE676AE4EEC87A84ED047AA5EEA1
:100FE000486A36EE266A26EE256A84ED036A77EEB5
:100FF000A67A67EEA57A2EE7A5EE086A36EE266A8F
:10100000C7EE865AB0EE676AA4EE886A36EE266AA4
:1010100025EE877A26EE256A84ED027A84ED016A50
:10102000B0EE676A84ED047AE5EE487AA4EEC86A09
:1010300036EE266A26EE256A84ED036AD7E7D4EDFC
:10104000087A78EEA8EA28EE089AF5EEC07AB7EEAC
:1010500000AAFFEE009AF1EE10FAB7EEC8DAB7EE8A
:1010600000BB68EE888AF1EE48AA9FED47CB44DBCF
:10107000B0EE4B6BB7EEC9FAB0EE6E0AADEE0C6B8C
:1010800036EE0F6B8BEE067BB7EEC7EB17F054F81E
:10109000F0EE4A7AE8EE889AE8EE007AB0EE6E0A50
:1010A00079EEA99AE8EE887A69EE8E9AC4ED029AF2
:1010B00067EE8E7AC4ED017A17F03EF8F0EE4A7AC8
:1010C000ADEE4CBBEAEE807AE8EE887A3FEE0BBBE1
:1010D00067EE8E7AC4ED037A79EE4A7A77EEA77AD4
:1010E00067EE8E7AB7EECEEAC4ED047A2BEE0EBB35
:1010F000B7EECBBB84ED05BAAFE6B0EE6E0A17F0E3
:101100001BF8F0EE4A7AB0EE4B5BADEE4CBBE8EE6E
:10111000007AADEE0C5BE8EE889AE8EE887AB0EEE5
:101120006E0A79EEA99A8AEE27EAB7EEC97A39EE05
:101130004A9A35EE075B37EE0B7B39EE099AB7EE2C
:10114000CE6A29EE0E9A69EE8E9A25EE065B84ED44
:10115000029AC4ED049A27EE066BB7EEC55BB7EEB4
:10116000C66B84ED015A84ED036A16F0E5FFF0EEDC
:101170004A7AEAEE807AE8EE887A67EE8E7A6AE654
:10118000182D4454FB210940CD3B7F669EA0F63FBD
:10119000D4ED087A38EEA8DA28EE089AF5EEC07A8F
:1011A000B7EE00FAB7EEC8CAF1EE10FAB7EE00AB30
:1011B000F1EE489A1FED0CBB42DBB0EE4A6BB7EE86
:1011C000C9EAB0EE4D0AACEE0B6B36EE0E6B8AEE52
:1011D000067BF7EEC7DB16F0AFFFF0EE687A39EE6C
:1011E000687AE8EE007A37EE077AB0EE4D0A27EE1D
:1011F0002D7A79EE277A84ED027A67EEAD7AC4ED26
:10120000017A16F099FFACEE4BABE9EE808AB7EEAF
:10121000ED7A79EE288A3EEE0AAB68EEAD8A2AEEC8
:1012200007ABC4ED038A79EE4F8A78EEA88AB7EE51
:10123000CAAB68EEAD8A84ED05AAC4ED048A0CE65B
:10124000B0EE4D0A16F078FFF0EE687AB7EEC96A94
:10125000E8EE007AB0EE4D0A77EE897A8FEE278AB3
:10126000B0EE4A7BACEE4BABACEE0B7BB7EEC85AA4
:1012700037EE067B36EE0A6B27EE057B26EE056B16
:10128000B7EEC77B79EE4F7AB7EEC66B84ED017A85
:1012900077EEA77A84ED036A67EE887AC4ED027A66
:1012A00079EE687A77EEA77A67EE887AC4ED047AE9
:1012B00016F042FFE9EE808A79EE288A68EE888A85
:1012C000C4ED058AC9E594ED077AB7EE006BB7EE79
:1012D000C83AB7EEC77AB0EE464B28EE088A86EEDB
:1012E000072BB7EEC87AA3EE024B34EE074B86EE1F
:1012F000045BA3EE426B37EE067BB7EEC55BB7EE41
:10130000C56A27EE067BB7EEC77BF7EE007A84ED61
:10131000017A38EE678AC4ED037A84ED057A38EEF7
:10132000088A28EE058A84ED028A84ED048A94E511
:10133000D0ED016AB0EE407AD0ED097AE6EE807A1F
:10134000D0ED026AB0EE670AD0ED0A7AE6EE877A4F
:10135000D0ED046AE6EEC07AD0ED036AC0ED097AFA
:10136000D0ED057A67EEC07AE6EE877AC0ED0A7AAC
:101370007047884201DB401AFBE7002801DA084485
:10138000FBE77047B4EEC01AF1EE10FA30FE010A26
:10139000B4EEE00AF1EE10FA30FE200A7047B4EE27
:1013A000E00AF1EE10FA1AD4B4EEE10AF1EE10FA06
:1013B00018D570EE607A71EEE02AB7EEC11A87EEAA
:1013C000A20AB7EE007BB7EEC06A22EE002A37EE23
:1013D000467BB7EEC20AA1EE070BB7EEC01BB0EE1C
:1013E000410A7047B4EEE20AF1EE10FA16D572EE39
:1013F000E12A30EE610AB7EE007B80EE221AB7EEEA
:10140000C22AB7EEC16A23EE013A37EE467BB7EE49
:10141000C31AA2EE071BB7EEC11BE0E7B4EEE30A66
:10142000F1EE10FA14D530EE620A73EEE22AB7EE4E
:10143000007BB7EEC33A80EE221AB7EEC16A24EE03
:10144000011A37EE467BB7EEC11AA3EE071BE2E79F
:10145000B0EE441AC3E70000B7EEE07AB6EE006BD8
:10146000B7EEC00AA7EE460BB7EE006B37EE067B71
:10147000B7EEC00BB7EEC00A27EE000BB7EEC00BFD
:10148000B5EEC00AF1EE10FA09DDF7EE007AB4EE1F
:10149000E70AF1EE10FA58BFB0EE670A70479FED09
:1014A000010A704700000000F6EE007AF0EE406A94
:1014B000B0EE416AB0EE600ADFED210AB7EE001A25
:1014C00008B52DED028BFFF75DFFB4EEE70AF1EEF4
:1014D00010FA1EDDB7EEC07AB6EE000BB7EE008B49
:1014E00037EE407BB7EEE60A37EE077B38EE400B6F
:1014F000B7EEC77BA6EE071AB7EEC11A16F078F85A
:1015000038EE400BF7EEC06BB0EE660ABDEC028B16
:1015100008BDF9D5B7EEC07AB0EE004BB7EE005B70
:10152000B0EE660AA7EE445BBDEC028BBDE8084056
:10153000B7EEC55BA5EE061AF0EE410A16F068BCE0
:10154000000000000000000038B52DED048BB0EE67
:10155000408A0446B7EE000A0D469FED119B30EE1F
:10156000480AB7EEC00A20EE090B16F00DFBB7EEE5
:10157000081B16F03DF8B7EEC00B85ED000AB7EE7C
:10158000C80A20EE090B16F0FFFAB7EE081B16F09A
:101590002FF8B7EEC00BBDEC048B84ED000A38BD0C
:1015A0001A2D4454FB21F93F90ED045B90ED006B44
:1015B000B7EEC00AB5EEC05B90ED024BF1EE10FA4B
:1015C00030EE460B0CDDB0EEC03BB4EEC35BF1EE8B
:1015D00010FA0CDDD0E9083293420ADA01330362D3
:1015E000A0EE046BB7EEC60B80ED006B70470023D6
:1015F000F5E79FED010BF3E700000000000000009D
:10160000B5EEC00AF7EE007AB0EEC00AF1EE10FABD
:1016100010B52DED028BB0EE608A82B0FFEE008A2D
:10162000044601A858BFF0EE678A16F0B9FBB7EE82
:10163000C87AB7EE006BB4EEC80AB7EEC00A36EE51
:10164000477BF1EE10FAB4EEC70B44BF019B236059
:10165000F1EE10FAC1BFB7EE007ADDED017A77EE58
:10166000877AC4ED007A94ED000A28EE800A02B071
:10167000BDEC028B10BDF7EE006A90ED006AB0EE93
:10168000C07AB4EE667AF1EE10FA48BFB0EE667A30
:10169000C6EE877AB4EEE76AF1EE10FA11DC90ED4F
:1016A000027AB7EE005BB7EEC66AB7EEC74A27EE1E
:1016B000277A35EE445BB7EEC77AA6EE057BF7EEE8
:1016C000C77B20EE270AC0ED007A704700000000BB
:1016D00060EE200A2DE9F04FFDEEE07A0F46044659
:1016E00017EE906A2DED048B26EAE672B0EE408A82
:1016F000F1EE048A80EDCC0A920083B0C0E9CD16E9
:101700000021384617F0E0FDC8EE887A234604F53C
:101710004072002583ED148AC3ED167ADD65C3E9B6
:101720000C7660339342F4D1B3EE007A00230022AA
:10173000B0EE480AC4F83C330023C7EE087A9FEDA8
:10174000509ADFF844B14FF0020ADFF840914FF0B1
:101750007C5845A7D7E9006745A1D1E90001C4E954
:10176000E06745A7D7E90067C4E9D601C4E9EA679D
:101770004FF07E560527C4F8F063C4F8FC6304F20A
:101780000446C4EDFE7AC4E9F401C4E9D823C4E9EF
:10179000E223C4E9EC23C4E9F623C6ED007A394E0E
:1017A000C4E9C20104F58B60C4E9C423019015F0BB
:1017B000AFFC019880ED029AFFF79FFA0198C0F8FC
:1017C0000CB0FFF7B8FA0198C0ED008AFFF784FA71
:1017D00001984560FFF7BEFA04F59B60C4F8D8A4F1
:1017E000C0F81C90C0F818800562FFF7DDFA04F21B
:1017F0000450C4F80475C66185610562FFF7D4FA28
:1018000004F59360B0EE480A019015F081FC019850
:1018100080ED029AFFF771FA0198C0F80CB0FFF75B
:101820008AFA0198C0ED008AFFF756FA01984560E0
:10183000FFF790FA04F5A660C4F830A5C0F81C9034
:10184000C0F818800562FFF7AFFA04F25C50C4F8E4
:101850005C75C66185610562FFF7A6FA03B0BDEC51
:10186000048BBDE8F08F00BF7B14AE47E17A843F64
:10187000FCA9F1D24D62503F2D431CEBE2361A3FDA
:101880000AD7A33C9A99193FCDCC4C3E0AD7233CAA
:1018900070B52DED088BB0EE409A9FEDB80A044666
:1018A0000546F0EE40AA00F540760346D3ED137AE4
:1018B00060339E4230EE270AF8D1B7EE00AA04F555
:1018C00068709FEDAE8AB4EECA0AF1EE10FA30FEEF
:1018D0000A0A8AEE000AFFF767FED4F83C23D4F820
:1018E0003433304603EB8203F0EE409A83ED009AE6
:1018F000B0EEC90AFFF758FE84EDCA0AD4EDCF7ADC
:10190000F8EEE78AD5ED157AF4EECA7AF1EE10FA20
:1019100030DB95ED107AD5ED137AB5EEC07AF1EEA5
:1019200010FA04DAF5EEC07AF1EE10FA22DDEB6B74
:10193000AA6CD5ED170AAB63914BB1EE600A85ED49
:101940000F7AC5ED127A2B646A64EB64C5ED15AAB3
:1019500005F066FAB1EE047BB7EEC00A95ED146AA5
:10196000B7EEC66A30EE070B80EE067BB7EEC77B9C
:1019700085ED167A95ED147AD5ED0E7A696B67EEE2
:10198000277A2A6BFDEEE77AF8EEE77A78EEE77AC7
:10199000FDEEE77A17EE900AFFF7EBFCD5ED0F7A34
:1019A000034627EE277A02EB8303BDEEC77AB8EE33
:1019B000C77A38EEC77AFDEEC77A17EE900AFFF7BE
:1019C000D8FCD5ED157A02EB800095ED12BAF4EE55
:1019D000CA7AD3ED006AD0ED008A3AEE677A27EE34
:1019E0008BBA284667EEA88A6035F1EE10FAE6EE6B
:1019F000878A55ED076A88BFF7EE007AA7EE26BA08
:101A00009CBF15ED027A77EE877AB0EEE80A45EDD5
:101A1000037AFFF7C9FD05ED0E0AAE42A8EE8B8AE8
:101A20007FF46CAF94F88935B0EE480A04F58B6505
:101A300004F58160002B00F08280FFF7B5FD04F211
:101A4000045038EE400AFFF773FC04F59B60FFF783
:101A50006FFCD4F83C23D4F83433B0EE408A2846E7
:101A600003EB820393ED000A38EE000A15F0ECFB5D
:101A700095ED050A94F8883528EE008A002B79D078
:101A8000B0EE680A04F58660FFF78EFD04F25C5044
:101A900038EEC00A04F59365FFF74AFC04F5A6602A
:101AA000FFF746FCD4F83C23D4F83433F0EE408AF8
:101AB000284603EB820393ED000A38EE800A15F006
:101AC000C3FB95ED050A68EE808AD4F83C2304F543
:101AD0005E70D4F8343394EDD10A03EB820393EDB6
:101AE00000AAFFF761FD20EE280A04F57F70A9EE39
:101AF00080AAB0EE4A0AFFF7BEFDD4F83C23D4F822
:101B00003433B1EE400A04F5547003EB820383EDE5
:101B1000000A94EDD00AFFF747FDA0EE098A04F50C
:101B20007C70B0EE480AFFF7A6FDD4E9CE10013074
:101B3000FFF71FFCC4F83C03BDEC088B70BDFFF73A
:101B400033FDD4F83C23D4F8343338EE408A2846A9
:101B500003EB820393ED000A38EE000A15F074FBE4
:101B600095ED050A94F8883528EE008A002B48FE8A
:101B7000288A85E7F0EE488AA7E700BF000000004A
:101B8000000080BFD0ED037AD0ED006A37EEA76A7F
:101B900090ED017AF8EEE66AF4EEC66AF1EE10FA1C
:101BA000DABFB8EEC77A87EE270A9FED010A7047C1
:101BB0000000000000000000F0B500210024002516
:101BC000602207A7D7E90067C0E90045C0E90267BE
:101BD000C0E90445C0E90645C0E90812F0BD00BFF0
:101BE000FCA9F1D24D62503FD3B5044618300191A3
:101BF000FFF7E2FF04F148000026FFF7DDFF01993F
:101C00000922204618F044F90B4F002308A1D1E91E
:101C10000001E360236123642367C4E90A01C4E986
:101C200016012046C4E90867C4E9146702B0D0BDB4
:101C3000FCA9F1D24D62403F0000E03F00000000EF
:101C400090ED1C7ADFED3E3A90ED106AB4EEE37A47
:101C500090ED035AB0EEC77A90ED043A9FED364B03
:101C6000FDEEC72AF1EE10FAB4EEE36AF8EEE27A7E
:101C7000B0EEC66A4CBF2D222022F1EE10FA37EEEC
:101C8000677AB4EEE35AB0EEC55A48BF2D23B7EEDB
:101C9000C77A58BF2023F1EE10FAB4EEE33A27EEEC
:101CA000047B4CBF2D212021B0EEC33AF1EE10FA97
:101CB000BDEEC77BFDEEC67A10B5F8EEE76A8AB0D6
:101CC0004CBF2D2420240491014636EE666A019310
:101CD0001C4812EE903A0794B7EEC66ACDED027A30
:101CE0008DED007A26EE046BBDEEC66BFDEEC56A87
:101CF0008DED036AF8EEE65ACDED056A35EE655ACC
:101D0000B7EEC55A25EE045BBDEEC55BFDEEC35ACA
:101D10008DED065AF8EEE53ACDED085A33EE633A0A
:101D2000B7EEC33A23EE044BBDEEC44B8DED094A2A
:101D300002F014FD0AB010BD00000000006AF84077
:101D40000000000004C20108F8B50446054600F58D
:101D5000407728460026FFF72FFF224BAE62603502
:101D600045F8203C45F8143C4FF07E5345F8286C6C
:101D700045F8246C45F81C6C45F8186C45F80C3C8B
:101D8000BD42E6D12846FFF717FF04F55470C4F8AA
:101D90002863FFF711FF04F55E70FFF70DFF04F5F0
:101DA0006870FFF709FF04F57270FFF705FF04F58F
:101DB0008160FFF701FF04F58660FFF7FDFE04F583
:101DC0009B60FEF7DBFF04F20450FEF7D7FF04F53B
:101DD000A660FEF7D3FF04F25C50FEF7CFFF20466B
:101DE000F8BD00BF000080BF70B5F1480025F14C80
:101DF000F14E2DED088BFEF7A1FDB7EE008AB6EE91
:101E0000003A9FEDEE1ADFEDEE0A0621FFF724FB04
:101E1000B0EE484AB0EE432ADFEDEA2AF0EE483A47
:101E2000DFEDE91AF0EE410AE14838EE400AFFF72B
:101E3000B6FA84ED100AFEF7FAFCD4ED047AB0EE9F
:101E4000481A04F1480030EE670AFFEE000AFFF777
:101E500099FA84ED030A94ED100AB0EE08BBFFF77F
:101E6000A3FBB6EE003A9FEDD51AB0EE484AF0EE6D
:101E7000483ADFEDD42AB0EE432ADFEDD31AF0EE74
:101E8000410A04F11800FFF78AFAF0EE408A94ED57
:101E9000030AB7EE00ABFFF787FBB0EE005BB7EECF
:101EA000E86ADFEDC60AB7EEC07AC148B0EE081A9C
:101EB000A6EE057B9FEDBC9BB7EEC70BFFF762FA62
:101EC00084ED1C0AFEF730FDB6EE003A9FEDBB1A1A
:101ED0000421BE4CB0EE484ADFEDBD0AB0EE432A05
:101EE000FFF7BAFAF0EE483AF0EE410ADFEDB52A14
:101EF000DFEDB51A38EE400AAD48FFF750FA84ED31
:101F0000100AFEF794FCD4ED047AB0EE481AFFEE06
:101F1000000A04F1480030EE670AFFF733FA84ED57
:101F2000030A94ED100AFFF73FFBB6EE003A9FED6F
:101F3000A31AB0EE484AF0EE483ADFEDA22AB0EE1E
:101F4000432ADFEDA11AF0EE410A04F11800FFF771
:101F500026FAF0EE408A94ED030AFFF725FB944839
:101F600038EE800A84ED1C0AFEF7F2FC38EE400AD7
:101F7000984C03218E4884ED100AFEF758FCD4EDEE
:101F8000047AB0EE481AFFEE000A04F1480030EE81
:101F9000670AFFF7F7F984ED030A94ED100AFFF7DB
:101FA00003FBF0EE408A04F1180094ED030AFFF7FA
:101FB000FBFAB0EE481A38EE800ADFED870AFFF729
:101FC000E1F984ED1C0AB7EEC00A20EE0B0B15F008
:101FD000BFF9774830EE4A0B80EE097BB7EEC77B3E
:101FE00084ED1C7AFEF7AFFC38EE400A7B4C0221F0
:101FF0006F4884ED100AFEF71AFCD4ED047AB0EEB7
:10200000481AFFEE000A04F1480030EE670AFFF7B5
:10201000B9F984ED030A94ED100AFFF7C5FAF0EE62
:10202000408A04F1180094ED030AFFF7BDFAB0EE00
:10203000481ADFED690A38EE800AFFF7A3F984ED4C
:102040001C0AB7EEC00A20EE0B0B15F081F930EE3A
:102050004A0B80EE097BB7EEC77B84ED1C7A604C9F
:1020600029465348FEF7E8FBDFED5E0A38EE400AEA
:102070002946FFF7F1F94E4884ED100AFEF702FCFD
:10208000D4ED047AB7EE001A04F1480030EE670A86
:102090009FED4A9AFFEE000AFFF774F984ED030AF8
:1020A00094ED100AFFF780FAF0EE408A04F1180070
:1020B00094ED030AFFF778FAB7EE001AF0EE490A3A
:1020C000294638EE800A3A48FFF75CF984ED1C0A8D
:1020D000FEF704FC013506F1480086ED100AFFF713
:1020E00063FAB7EE001AFFEE000A7834FFF74AF9F8
:1020F000092D86ED1C0A06F17806B1D13A4C2C4820
:10210000FEF717FCDFED320A0521294838EE400AB8
:10211000FFF7A2F984ED100AFEF789FBD4ED047AEB
:10212000B7EE001A3148FFEE000A30EE670AFFF7FB
:1021300029F984ED1C9A84ED030AFFF723FDB4EE20
:10214000C90A9FED2B9AF1EE10FA40F3848094EDCA
:10215000107ADFED280AB7EEC77A27483AEE47AB88
:10216000B2EE087B2AEE07ABB7EECA0BFFF748FAD0
:10217000F2EE047AB0EE408A94ED030A1F4820EE96
:10218000270ADFED1C0AFFF73BFA38EE000AB7EE2C
:10219000C01AB0EE000B15F02BFA1448B0EE408BCD
:1021A0002EE000BFAFF30080643BDF4F8D1743404C
:1021B0008809002458080024E811002400000000C9
:1021C0004260E53CCDCC0C3F6666E63E2816002416
:1021D00017B7513A701100246F12833A1009002486
:1021E000380D00246F12033BA01600242808002499
:1021F00000001643FA7EAA3E1C170024181700247C
:10220000FFF7C0FC00239FED267B28EE078BB7EE7F
:10221000C88BC0EE087AC4ED1C7AF4EEC97AF1EEF0
:1022200010FA12DC0BB1C4ED1C7AD4ED1C7A9FEDD0
:102230001E7AF4EEC97ABDEC088BF1EE10FA58BFA5
:10224000F0EE477AC4ED1C7A70BDB6EE007A012339
:1022500067EE877AE1E704F1480094ED100AFFF792
:10226000A3F904F11800B7EEC08A94ED030AFFF752
:102270009BF9B1EE041BB7EEC00A20EE011BB0EED5
:10228000000B15F0B5F928EE088BB2EE007B28EEB6
:10229000078B88EE007BB7EEC77B84ED1C7AC4E722
:1022A000000000000000903F000016430000000006
:1022B0002DE9F04FD24E8046D24D0124DFF884B391
:1022C000A946AA462DED048B87B0CDE9011205F091
:1022D00089FA3268CBF808000132CB483260FEF749
:1022E00099FAC948FEF7A2FAFFF77EFD09F5B76132
:1022F000D9ED0A7AC54F91ED000A3978F4EEC07A2B
:10230000F1EE10FA58BFB0EE670A49B12C21C0486F
:1023100001FB0400039002F06DF9039802F07CF9D0
:10232000013409F16009092CE0D1BA4ADAEDCA7A20
:1023300092ED000A3A78B4EEE70AF1EE10FA30FEB8
:10234000270A2AB1B24802F055F9B14802F064F9FF
:10235000B148B24990ED1C8AB148B24FA94CD0EDBA
:102360001C8AB148D1ED1C9A97ED1C9A03F09EFA95
:102370008246AE4803F09AFA814604F59E60C4EDA9
:10238000D09A84EDD19A84EDD29AC0ED008A04F5FA
:102390009B60FEF709FD04F21C5080ED008A04F2F8
:1023A0000450FEF701FD04F5A960C0ED008A04F5B4
:1023B000A660FEF7F9FC04F2745080ED008A04F286
:1023C0005C50FEF7F1FC04F50D6084F888A5C0EDC3
:1023D000009A04F6D40084F8899580ED009A04F6FA
:1023E000D80080ED009A04F52860C0ED008A04F65C
:1023F0006820FEF7D9FC04F6AC2080ED008A04F6D4
:102400009420FEF7D1FC04F6D820C0ED008A04F534
:102410002C60FEF7C9FC04F6043080ED008A04F657
:10242000EC20FEF7C1FC7D4984F818AB04F5BA64D2
:1024300084F849958A464FF001094946724809EEE9
:10244000109AFEF74BFA05A904A8FFF77DF8BAEE3B
:10245000EE9A7748B0EE041AB7EE008BD0ED1C0A66
:10246000B0EE490AFFF720F897ED1C6A7149B7EE04
:10247000C66A9DED047AD1ED1C7A6D4836EE486B44
:1024800020EE270ADAED3A7AB5EEC06B67EE877A6E
:10249000F1EE10FA01DC9FED586BB7EEC66B85EDDF
:1024A000100AC5ED137AB0EE041AB0EE490AD0ED69
:1024B0001C0A85ED176AFEF7F7FF5E49DAED3A6A06
:1024C000D1ED1C7A97ED1C7A20EE270ADDED057A16
:1024D00066EEA76AB7EEC77A37EE487BB5EEC07BEB
:1024E000F1EE10FA01DC9FED447B09F10109B7EE32
:1024F000C77B84ED000A0AF1780AB9F1090FC4ED2F
:10250000036A84ED077A05F1600504F1600494D153
:102510000025029B9D424ED04748FEF7D0FB474A1C
:10252000002845D0117A002942D1116807EE901A8F
:10253000B8EEE77AD2ED037A77EEA77AB4EEE77ACF
:10254000F1EE10FA09DC5468214407EE101ABAEED5
:10255000EF7BFDEEC77B17EE901A516000211160F2
:102560004FEA85091072D8F80420354C02EB850239
:10257000244892ED008AD8F8002002EB850201354C
:1025800092ED000AFFF784F9A4F5B26084ED000A29
:10259000B0EE480AFFF77CF9019B2268196884EDC8
:1025A000010A49440A605A6861684A441160B0E708
:1025B00011680131D3E705F015F9DBF808209BED30
:1025C000017A831A9BF8002007EE903AF8EE677ABA
:1025D00067EE877AC2B30022CBED057ACBED037AA2
:1025E000CBED047A8BF800203368013B336007B0F1
:1025F000BDEC048BBDE8F08F00000000000000007F
:1026000054080024201700248809002420160024E0
:10261000A80B0024D81F002410090024380D002422
:102620007011002458080024D0080024E408002475
:1026300028160024A0160024480B00242808002493
:1026400040220024380800249BED047ADBED066A62
:10265000F4EEC77A9BED037A9BED056AF1EE10FA72
:10266000F4EEC77AB7EE007AC8BFCBED047AF1EE8C
:1026700010FA37EE667A48BFCBED037A27EE067A7A
:10268000A7EEA67A8BED057AAEE700BF000000004A
:10269000B7EEC00A9FED0A7BB4EEC70BF1EE10FA5D
:1026A00009DD9FED097BB4EEC70BF1EE10FA4CBFCC
:1026B0000120002070470020704700BFAFF300806A
:1026C000B81E85EB51B89EBFB81E85EB51B89E3F32
:1026D00038B55D482DED048B02F040F85B48FEF7FD
:1026E000EEFA002800F0A98059480421FEF79FF86F
:1026F000FFF7CEFF002800F0A08055480521FEF727
:1027000096F8FFF7C5FF002800F097805048062193
:10271000FEF78DF8FFF7BCFF002800F08E804C48D4
:102720000221FEF784F8FFF7B3FF002800F0858050
:1027300047480321FEF77BF8FFF7AAFF00287CD06B
:1027400043480121FEF773F8FFF7A2FF002874D079
:10275000B7EE008A3E48FEF7ECF8DFED3E0A38EEB1
:10276000400AFEF779FEB7EEC00A9FED359BB4EE46
:10277000C90BF1EE10FA60D43548FEF7D5F8DFED5D
:10278000350A38EE400AFEF767FEB7EEC00AB4EE2F
:10279000C90BF1EE10FA50D42D48FEF7CFF8DFED5B
:1027A0002D0A38EE400AFEF757FEB7EEC00AB4EE27
:1027B000C90BF1EE10FA40D42548FEF7C9F8DFED59
:1027C000250A38EE400AFEF747FEB7EEC00AB4EE1F
:1027D000C90BF1EE10FA30D41D48FEF7B4F8DFED66
:1027E0001D0A38EE400AFEF737FEB7EEC00AB4EE17
:1027F000C90BF1EE10FA20D4002515482946FEF742
:1028000041F8FFF745FF0446B8B129461048FEF7E6
:1028100013F8DFED100A38EE400AFEF71DFEB7EEA2
:10282000C00AB4EEC90BF1EE10FA06D40135092D39
:10283000E3D12046BDEC048B38BD0024F9E700BF8E
:10284000666666666666EE3F4FC20108480B002466
:10285000880900246F12033B38B5534C534894ED5C
:10286000057A534DB5EEC07AB0EEC77A2DED028BE6
:10287000FDEEC76AF1EE10FAF8EEE67A16EE902A4F
:102880004CBF2D21202137EE677A9FED458BB7EEA7
:10289000C77A27EE087BFDEEC77B17EE903A01F072
:1028A0005DFF94ED036A4348B5EEC06AB0EEC66AB8
:1028B000F1EE10FAFDEEC67A4CBF2D212021B8EEC4
:1028C000E77A17EE902A36EE476AB7EEC66A26EE2A
:1028D000086BBDEEC67B17EE103A01F03FFF94ED9A
:1028E000047A35480024B5EEC07AB0EEC77AF1EE2E
:1028F00010FAFDEEC76A4CBF2D212021F8EEE67AD2
:1029000016EE902A37EE677AB7EEC77A27EE087B85
:10291000FDEEC77B17EE903A01F020FF274B2848C9
:10292000196801F01BFF274801F018FF2648FEF741
:10293000C6F9264A2649002818BF1146254801F045
:102940000DFF2548FFF77CF92448FFF779F9244863
:10295000FFF776F92348FFF773F92348FFF770F97B
:10296000184801F0FBFE01342846FFF769F9783575
:10297000092CF8D11D4D0024124801F0EFFE01345E
:102980002846FFF75DF97835092CF8D10D48BDECE4
:10299000028BBDE8384001F0E1BE00BFAFF300801C
:1029A0000000000080842E41380800246CC2010819
:1029B000380D00247FC2010892C201085408002487
:1029C000A5C2010810E50108480B0024D4C2010883
:1029D00068C20108B8C2010828160024A016002405
:1029E000580800241009002470110024E811002464
:1029F00070B5836F90B000F140050646019302ACBC
:102A00000FCD0FC40FCD0FC40FCD0FC495E8030039
:102A100084E80300D6E9000104F004F9044605F057
:102A200081F818B13C21204604F014FE94ED017A9F
:102A3000D6ED107AB4EE677AF1EE10FA35D194ED56
:102A4000027AD6ED117AB4EE677AF1EE10FA2CD153
:102A500094ED037AD6ED127AB4EE677AF1EE10FABD
:102A600023D194ED047AD6ED137AB4EE677AF1EEC1
:102A700010FA1AD194ED057AD6ED147AB4EE677A8D
:102A8000F1EE10FA11D104F1180306F154023C34AE
:102A9000B3EC017AF2EC017AB4EE677AF1EE10FA57
:102AA00003D1A342F4D110B070BD7168306801F158
:102AB0003C0203F0CDFF01AB3C22D6E9000103F05C
:102AC000C1FFF0E72DE9F04741F2883704460E4692
:102AD0004FF0000897FBF1F72DED028B47452BDDFA
:102AE0000923DFF8B8A14FF00009B8FBF3F303EBBB
:102AF000C303A8EB0305C5F10805B7EE000A4D4571
:102B0000DFED5E7A504609F1010900FE270A01F067
:102B100071FD504601F080FDB9F1090F0AF12C0A50
:102B2000EBD1304604F064FEFFF7D2FD002800F040
:102B3000A18008F10108D1E79FED508A04F1140843
:102B400024220021404684ED008A84ED018A00267B
:102B500084ED028A84ED038A84ED048A16F0B4FBC6
:102B6000474801F0FBFD474B4546D4ED007A04F1A0
:102B7000380A93ED037A444B77EE877A434AC4EDE3
:102B8000007AD4ED017A93ED037A414B77EE877AA0
:102B9000C4ED017AD4ED027A93ED037A3D4B77EEE2
:102BA000877AC4ED027AD4ED037A93ED037A3A4B37
:102BB00077EE877AC4ED037AD4ED047A93ED037A45
:102BC000434677EE877AC4ED047AD2ED037A783201
:102BD00093ED007A77EE877AE3EC017A5345F4D1EE
:102BE000F7EE008A0A2004F003FE2C4F16F0040FC3
:102BF0004FF0000948FE888A3846B0EE680A09F1AD
:102C0000010901F0F7FC38462C3701F005FDB9F158
:102C1000090FF1D10136802EA5D1DFED217A94ED97
:102C2000007A27EE277A84ED007A94ED017A27EE78
:102C3000277A84ED017A94ED027A27EE277A84EDE3
:102C4000027A94ED037A27EE277A84ED037A94EDE5
:102C5000047A27EE277A84ED047A95ED007A27EE40
:102C6000277AA5EC017AAA45F7D10E48022383679B
:102C7000FFF7BEFEBDEC028BBDE8F0870000000050
:102C8000C2C20108A016002428160024380D002412
:102C9000580800247011002410090024A80B0024F7
:102CA0000000003CAC0700242DE9F041C44800249A
:102CB000C44FC54E3D462DED048B94B0FDF752FE3A
:102CC000002001F059FDC14801F048FD0721BC4832
:102CD000FDF74DFDBD4801F041FD06230122BC4832
:102CE0008DF814300D238DF81530059901F04EFC48
:102CF000B84801F033FDB84B9FEDB80A00221978AF
:102D00005B78B74841EA032101F052FCB54B9FEDD7
:102D1000B30A002219785B78B34841EA032101F035
:102D200047FCB24B9FEDAD0A002219785B78B048A2
:102D300041EA032101F03CFCAE4B9FEDA80A0022C2
:102D400019785B78AC4841EA032101F031FCAB4BC8
:102D50009FEDA20A002219785B78A94841EA032175
:102D600001F026FCA74B9FED9D0A002219785B78A5
:102D7000A54841EA032101F01BFCA44B9FED970AF3
:102D8000002219785B78A24841EA032101F010FC87
:102D9000A04B9FED920A002219785B789E4841EA89
:102DA000032101F005FC9D4B9FED8C0A0022197850
:102DB0005B789B4841EA032101F0FAFB22469949DE
:102DC00006A817F045F80A2206A9304617F060F861
:102DD0002246954906A8013417F03AF828460A22F7
:102DE00006A9783617F054F8092C05F17805E5D1D5
:102DF0004FF000088D4B8E4E06ADCDF80080424658
:102E0000587806F108041978012341EA002189481D
:102E100002F066FC884BCDF800804246587819785D
:102E2000012341EA0021854802F05AFC032164484D
:102E3000FDF7C5FC6248FDF7EAFCBDEEC00A804B19
:102E40005F48B8EEC00A83ED030AFDF7E0FC5C487A
:102E5000B0EE408AFDF7DBFCB7EEC00A79497A484C
:102E60009FED536B86EE007BB0EE480A9FED526BF0
:102E700037EE067BF7EEC70BCDED030AFEF728FC15
:102E8000B0EE480ADDED030A70497148FEF720FCF8
:102E9000242241460BA816F017FA002306F1400C35
:102EA0000A9306930793089309930FCD0FC40FCD90
:102EB0000FC40FCD0FC495E8030084E8030006ACEF
:102EC000C6F804800FCCACE80F000FCCACE80F00C4
:102ED0000FCCACE80F0095E803008CE803004146F6
:102EE000306803F09FFE03685A1E012A40F2E0801A
:102EF00001233046B367FFF77BFD31480024FDF71F
:102F000086FC2F48F0EE408AFDF72BFC07EE900A76
:102F1000B8EEE78A04F0FEFD07EE900AB7EE007AFD
:102F20004C4B012288EE289A9FED4B6A1A704B4A4F
:102F30004B492348F8EE677ADA601A615A6167EE06
:102F4000897AC7EE276AC3ED016AC8EE886AC6EEC1
:102F5000267A37EE877AC7EE876AC3ED066AFDF7F1
:102F6000FDFBDFF87C800025B7EE000AAC42DFED08
:102F70003D7A404605F1010500FE270A01F03AFBC3
:102F8000404601F049FB092D08F12C08ECD1013431
:102F9000642004F02DFC092CE3D1FFF799FB18B154
:102FA00064213148FFF78EFD326C304B1A615FE0CF
:102FB0000000000000407F400000000000C06240B0
:102FC00088090024380D0024E8110024D7C2010824
:102FD000F8080024E2C2010854C3010800007A4442
:102FE000A80B002450C30108D40B00244CC30108D3
:102FF000000C00242CC301082C0C002428C3010859
:10300000580C00243CC30108840C002424C301088C
:10301000B00C002430C30108DC0C002434C30108C8
:10302000080D0024ECC20108F3C2010858C30108CE
:10303000AC070024D008002438C30108E4080024A9
:1030400028080024A083B7C120170024000000C076
:10305000B01C002438080024DB0FC9400000C07FEA
:10306000B122000800000000EC070024A016002494
:10307000726C174B1A61B26C164B1A61326D164B9B
:103080001A61F26C154B1A610023154A013352F88C
:10309000041B7837092B47F8681CF7D1114B012224
:1030A0001A70FFF7D9FB40F24D1004F0A1FBF8E7CE
:1030B000041D06F14005B3670FCC0FC50FCC0FC53B
:1030C0000FCC0FC594E8030085E8030015E700BFA7
:1030D0002816002458080024100900247011002428
:1030E000000800242016002438B5424D002405F1C4
:1030F0002C002C62AC62C5E90344FDF7D7FD05F551
:10310000E070FDF7D3FD05F5EC70FDF7CFFD05F59B
:10311000F870FDF7CBFD05F50170FDF7C7FD364AE8
:103120003649284614F00CF935493648FEF75CFD5F
:1031300035493648FEF758FD35493648FEF754FD07
:1031400035493648FEF750FD35493648FEF74CFD07
:103150003548364920447834FEF746FDB4F5876F8C
:10316000F6D100243248314920447834FEF73CFD42
:10317000B4F5876FF6D12F4C00252F4B3822294606
:103180006560236004F1080016F09EF82946382295
:1031900004F1400016F098F8A56728480924284D46
:1031A000FDF784FD144A2749244814F0C9F805F1B5
:1031B00018002C35FDF77AFD013CF8D10E4A204667
:1031C000214914F0BDF82148FDF770FD2048FDF7B6
:1031D0006DFD2048FEF7B8FD1F48FEF7B5FD064A15
:1031E0001E491C4814F0ACF81D4BC3E900441C7286
:1031F00038BD00BF8809002400000024A70C000887
:10320000FCC20108A016002401C3010858080024CC
:103210000AC301082816002411C30108100900245C
:103220001AC3010870110024380D002410E50108AC
:10323000E8110024AC07002494090024F8080024B5
:10324000A80B0024A50C0008A90C0008D008002435
:10325000E408002420170024B01C0024AB0C000854
:103260002808002407490022074B01F1600010B430
:10327000302459601A611C601A755DF8044BC3E96B
:1032800002027047C000003048220024F0B58C23B1
:1032900087B00160002203710124FA26194605ABAC
:1032A0008DF814200296402200932346019405468F
:1032B00002F024FD002840F09B809DF814300DF1B1
:1032C00017074022284603F07F030097CDE9014607
:1032D0008DF814308DF817302346297902F034FD2B
:1032E000002840F08580042004F082FA05AB4022DB
:1032F000284600932346CDE90146297902F0FEFCD9
:10330000002875D19DF8143040220097284603F01C
:10331000BF03CDE901468DF814308DF817302346F0
:10332000297902F011FD002862D1042004F060FA2E
:103330000DF115034322284600932346CDE90146AB
:10334000297902F0DBFC002852D10DF11603482246
:10335000284600932346CDE90146297902F0CEFCA8
:10336000002845D19DF8153043220097284643F0A8
:1033700001038DF815308DF817309DF8163043F0A5
:103380000103CDE901468DF816302346297902F074
:10339000DBFC68BB9DF816304822009728468DF864
:1033A00017302346CDE90146297902F0CDFCF8B962
:1033B00005AB4022284600932346CDE901462979F2
:1033C00002F09CFCA0B99DF81420234601942846E5
:1033D00002F0CF0402960097402229798DF814401C
:1033E0008DF8174002F0B0FC003818BF012000E053
:1033F000012007B0F0BD00BFF0B5102387B0234C0B
:10340000012200250126002702A920460195CDE9C9
:1034100002234FF48052CDE904670DF021FA6420B5
:1034200005F006F902A94FF480522046CDE9046761
:1034300002261027CDE902670DF012FA03221023AD
:1034400002A92046CDE9022300230422CDE904236A
:103450004FF480520DF004FA40F23223042202A904
:10346000019310232046CDE90223019A01230592FE
:103470004FF4805204930DF0F3F940F60601204614
:103480000DF00EFA284607B0F0BD00BF68220024F8
:103490001C4B00221C494FF0400C30B5054689B04A
:1034A0000220596007219A601A620124DA620A2216
:1034B0004FF4006EDC6006922022CDE9000104206A
:1034C0000821CDE9020103201021CDE904010820E3
:1034D0006946C3E904024FF4C072181DC3E906C26D
:1034E0004FF48052C3E909E20DF090F938B928464B
:1034F000FFF782FF003818BF012009B030BD204619
:1035000009B030BD6422002440410052614A0021CC
:10351000D0B513688EB00A91002B40F0B9805E4B95
:1035200001214FF683700C2411600221D3F8D420BE
:103530000026032742F48052C3F8D420D3F8D420C5
:1035400002F480520092009AD3F8E02042F0100278
:10355000C3F8E020D3F8E02002F010020192019AB3
:10356000D3F8E02042F04002C3F8E020D3F8E02096
:1035700002F040020292029AD3F8E02042F00802E0
:10358000C3F8E020D3F8E02002F008020392039A87
:10359000D3F8E02042F48072C3F8E020D3F8E020B2
:1035A00002F480720492049AD3F8E02042F0800280
:1035B000C3F8E020D3F8E02002F080020592059ADB
:1035C000D3F8E02042F02002C3F8E020D3F8E02056
:1035D00002F020020692069AD3F8E02042F004029C
:1035E000C3F8E020D3F8E0300C9403F00403079311
:1035F0000323079A0B93CDE9080108A9274807F090
:103600008FFB48F23712022308A925480C94CDE914
:103610000823CDE90A6707F083FB4CF2037202230B
:1036200008A920480C94CDE90823CDE90A6707F0E2
:1036300077FB40F2FF62022308A91B480C94CDE9F6
:103640000823CDE90A6707F06BFB4FF60C720223E3
:1036500008A916480C94CDE90823CDE90A6707F0BC
:103660005FFB4FF63F02022308A911480C94CDE9F5
:103670000823CDE90A6707F053FB2022022308A99B
:103680000A480C94CDE90A67CDE9082307F048FB06
:103690000EB0D0BD60220024004402580010025831
:1036A00000180258000C025800200258001C025852
:1036B000001402582DE9F04FDFF8108406460D463D
:1036C000144608F118002DED028B89B000AF03F00D
:1036D000BBFED8F8183073B3D8F81C30D8F8049073
:1036E000002B43690BBF4FF0080A4FF0100A4FF050
:1036F000020B4FF0040BB9F1000F2AD0A200EA46EA
:10370000012B02F1070222F00702ADEB020D684621
:10371000ADEB020D694600F03F81022B00F0D68030
:10372000002B6FD02246C847D5462437BD46BDEC96
:10373000028BBDE8F08FD8F81C30002BF5D0D8F8FC
:1037400004904FF0080A4FF0020B4369B9F1000FE3
:10375000D4D1FB61D8F80030BB61002BE5D0D5484F
:1037600003F0E4FE6B46BBF1020F786108EE103AFD
:10377000FB6900F083816A465146A2EBC40295467C
:103780006200EA46B2FBFBF2AAEBC40085460AEBF4
:103790008200EE46F861ADEB010DF8690EEB820C8C
:1037A000C7F810C0EC46ADEB010D00EB8201CCF880
:1037B0000400CCF8081001EB82013869E946CCF826
:1037C0000C1000EB8201CCF800A001EB8202C9E9E9
:1037D00000E0C9E90212012B00F06483022B00F023
:1037E0006C82002B00F08081620849466046BB690C
:1037F000984718EE103A24379D46BD46BDEC028B23
:10380000BDE8F08F002C8DD01A46D8ED0C6A9FEDE4
:10381000B27A8446331D36F922E00CF1080C07EE2B
:1038200090EA33F922E00232F8EEE77A944267EE4A
:10383000877A67EEA67A4CED027A07EE90EAF8EE08
:10384000E77A67EE877A67EEA67A4CED017AE2D8DE
:10385000F9612246C847984ED8ED0D6A0020F969F3
:103860002B1D9FED9E7A9FED9E6ADFED9E5A22E012
:10387000F4EEC67AF1EE10FAC0F2C88447F6FE7292
:10388000D1ED017A45F8202066EEA77AF4EEC77AEA
:10389000F1EE10FA40F2F080F4EEC67AF1EE10FA92
:1038A000C0F2D58447F6FE7243F82020023008317A
:1038B00084427FF639AFD1ED007A66EEA77AF4EE56
:1038C000C77AF1EE10FAD3D83246D9E7002C3FF48C
:1038D00029AFD8ED0C6A84469FED787A0022331D1B
:1038E0008E4656F822100CF1080C07EE901A53F889
:1038F00022100232F8EEE77A944267EE877A67EE9A
:10390000A67A4CED027A07EE901AF8EEE77A67EEA7
:10391000877A67EEA67A4CED017AE2D871462246A4
:10392000C7F81CE0C847664ED8ED0D6A0020F9695B
:103930002B1D9FED6A7A9FED6A6ADFF894C120E043
:10394000F4EEC67AF1EE10FAC0F279843246D1ED87
:10395000017A45F8202066EEA77AF4EEC77AF1EEF8
:1039600010FA40F28780F4EEC67AF1EE10FAC0F257
:103970005E84324643F820200230083184427FF6CC
:10398000D3AED1ED007A66EEA77AF4EEC77AF1EE07
:1039900010FAD5D86246DAE7002C3FF4C3AED8ED72
:1039A0000C6A86469FED477A4FF0000C331D56F89F
:1039B0002C200EF1080E82F40002A2F5000207EEA0
:1039C000902A53F82C200CF1020CF8EEE77A82F4DE
:1039D00000026445A2F5000267EE877A67EEA67AD8
:1039E0004EED027A07EE902AF8EEE77A67EE877AD4
:1039F00067EEA67A4EED017AD9D8F9612246C8471A
:103A0000314ED8ED0D6A0020F9692B1D9FED337AF8
:103A10009FED336ADFF8BCC01FE0F4EEC67AF1EE2A
:103A200010FAC0F2FC833246D1ED017A45F820202D
:103A300066EEA77AF4EEC77AF1EE10FA18D9F4EE32
:103A4000C67AF1EE10FAC0F2DA83324643F820204B
:103A50000230083184427FF667AED1ED007A66EE1F
:103A6000A77AF4EEC77AF1EE10FAD6D86246DBE711
:103A70006246EBE762467DE7324615E7A100D6468F
:103A80006208073121F00701ADEB010DEA46ADEB0D
:103A9000010D6946ADEB0E0D0AEB8200EC46ADEB75
:103AA0000E0D01EB8202F861E946CCE900A0C9E9FC
:103AB000001290E6B82200240280FFFF00000030D0
:103AC0000082FF7F0000003482FF7F009C220024E0
:103AD000007E00807E0080FF0000003804FF7FBF72
:103AE00004FF7F3F00FEFF46002C00F0C982BBF1BF
:103AF000020FD8F8242000F0FA827969C7F8049000
:103B000002EB810E5FED0C5A8A00DCF808100EF112
:103B100004007A611A46DCF80C303B61331DD7F89B
:103B200010903D61FD69C7E902CB8C46834636F9AA
:103B30002210D8ED0C7A06EE101A33F9221006EE98
:103B4000901A3EF92210B8EEC66A07EE101AF8EE87
:103B5000E66A3BF92210B8EEC77A26EE256A66EED1
:103B6000A56A27EE257A26EE276A66EEA76A27EE73
:103B7000277A07EE901A51080232F8EEE77A0AEB3C
:103B80008100944280ED006A05EB810067EEA57A22
:103B9000C0ED006A0CEB810009EB810180ED007A39
:103BA00098ED0C7A67EE877AC1ED007ABFD8D7F826
:103BB00004903D69D7E902CB60466208BB6949467B
:103BC0009847D8F82C307A69D8ED0D6A1A441FED61
:103BD0003D7A1FED3D6A2B1D904602F1040A5FED10
:103BE0003F5A0022A84ED9E900EC51E0F4EEC67A23
:103BF000F1EE10FAC0F2C78247F6FE7045F82200D7
:103C00000CEB0100D0ED007A66EEA77AF4EEC77AED
:103C1000F1EE10FA4BD9F4EEC67AF1EE10FAC0F2DA
:103C2000BA8247F6FE70BBF1020F43F822002BD098
:103C3000D9F808000844D0ED007A66EEA77AF4EED1
:103C4000C77AF1EE10FA36D9F4EEC67AF1EE10FA30
:103C5000C0F2CD8247F6FE7048F82200D9F80C0079
:103C60000144D1ED007A66EEA77AF4EEC77AF1EE60
:103C700010FA1ED9F4EEC67AF1EE10FAC0F2AF8255
:103C800047F6FE714AF82210023294427FF6B1AD37
:103C900051080EEB81008900D0ED007A66EEA77A1C
:103CA000F4EEC77AF1EE10FAA0D83046A6E7304617
:103CB000B9E73146E6E73046CEE7002C00F0E08178
:103CC000BBF1020FD8F8243000F0E1817A69DCF80A
:103CD000081003EB820EC7F804909300DFED6B5AD7
:103CE0000EF1040000227B61DCF80C303B61331DD7
:103CF000D7F810903D61FD69C7E902CB8C46834639
:103D000056F82210D8ED0C7A07EE101A53F822104C
:103D1000B8EEC76A07EE101A5EF82210F8EEC76A0E
:103D200007EE101A26EE256A5BF82210B8EEC77A65
:103D300066EEA56A26EE276A27EE257A66EEA76A62
:103D400027EE277A07EE901A51080232F8EEE77A4A
:103D50000AEB8100944280ED006A05EB810067EE7A
:103D6000A57AC0ED006A0CEB810009EB810180EDC2
:103D7000007A98ED0C7A67EE877AC1ED007ABFD8A9
:103D8000D7F804903D69D7E902CB60466208BB6969
:103D900049469847D8F82C307A69D8ED0D6A1A440C
:103DA0009FED3E7A9FED3E6A131D9246DFF8E4C018
:103DB0000022FB612B1D364ED9E9008E4EE0F4EE59
:103DC000C67AF1EE10FAC0F2FC81304645F82200C6
:103DD0000EEB0100D0ED007A66EEA77AF4EEC77A1A
:103DE000F1EE10FA49D9F4EEC67AF1EE10FAC0F20B
:103DF000EF813046BBF1020F43F822002AD0D9F8F8
:103E000008000844D0ED007A66EEA77AF4EEC77A8F
:103E1000F1EE10FA35D9F4EEC67AF1EE10FAC0F2EE
:103E2000C98130464AF82200D9F80C000144D1ED8E
:103E3000007A66EEA77AF4EEC77AF1EE10FA1ED990
:103E4000F4EEC67AF1EE10FAC0F2AD813146F869AF
:103E500040F82210023294427FF6CBAC510808EBB6
:103E600081008900D0ED007A66EEA77AF4EEC77A79
:103E7000F1EE10FAA3D86046A8E76046BAE76146BB
:103E8000E5E76046CEE700BF0280FFFF000000309C
:103E90000082FF7F007E00800000003404FF7FBFAF
:103EA00004FF7F3F002C00F0EB807A690021D8F8F6
:103EB0002430C7F8109003EB820ED7F81C909300C3
:103EC000FD610EF104021FED0C6A7B61331D154686
:103ED00056F821204808D8ED0C6ABBF1020F82F495
:103EE0000002A2F5000207EE902A53F8212082F486
:103EF0000002B8EEE77AA2F5000227EE067A07EE96
:103F0000902A0AEB8002F8EEE77A27EE267A67EE2F
:103F1000867A82ED007A09EB80024FEA800067EE34
:103F2000A67AC2ED007A27D05EF8212082F4000242
:103F3000A2F5000207EE902A55F8212082F4000233
:103F4000B8EEE77AA2F5000227EE067A07EE902A8D
:103F5000DCF80820F8EEE77A024427EE267A67EECE
:103F6000867A82ED007A98ED0C7ADCF80C2067EE08
:103F7000877A0244C2ED007A02318C42A8D8D7F881
:103F8000109060466208BB694946FD699847D8F8B9
:103F90002C307A69D8ED0D6A1A441FED407A1FED76
:103FA000406A131D9246DFF8C4C20022FB612B1D3C
:103FB000AB4ED9E9008E4EE0F4EEC67AF1EE10FA7F
:103FC000C0F2C580304645F822000EEB0100D0ED6E
:103FD000007A66EEA77AF4EEC77AF1EE10FA49D9C4
:103FE000F4EEC67AF1EE10FAC0F2BF803046BBF1B3
:103FF000020F43F822002AD0D9F808000844D0ED77
:10400000007A66EEA77AF4EEC77AF1EE10FA35D9A7
:10401000F4EEC67AF1EE10FAC0F2AE8030464AF8FD
:104020002200D9F80C000144D1ED007A66EEA77A9F
:10403000F4EEC77AF1EE10FA1ED9F4EEC67AF1EE7C
:1040400010FAC0F28B803146F86940F82210023233
:1040500094427FF6CEAB510808EB81008900D0ED89
:10406000007A66EEA77AF4EEC77AF1EE10FAA3D8DA
:104070006046A8E76046BAE76146E5E76046CEE7F6
:10408000224649466046BB699847FFF7B2BBC7F86E
:1040900010B0002298ED0C6A331DDFED726AD7F87C
:1040A0001CB0786956F8221007EE901A53F82210C7
:1040B000B8EEE77A07EE901A51080232F8EEE77A86
:1040C00027EE267A0AEB810E94420BEB810167EE14
:1040D000A67A27EE067A67EE867A8EED007AC1ED33
:1040E000007ADFD88300D7F810B07B614DE61A461E
:1040F000C7F810B098ED0C6A331DDFED5B6AD7F896
:104100001CB0786936F9221007EE101A33F9221024
:1041100007EE901AB8EEC77A51080232F8EEE77A45
:1041200027EE267A0AEB810E94420BEB810167EEB3
:10413000A67A27EE067A67EE867A8EED007AC1EDD2
:10414000007ADFD88300D7F810B07B6134E5F0EE59
:10415000675AFEEEE45A15EE900A34E7F0EE675A1D
:10416000FEEEE45A15EE901A6EE7F0EE675AFEEE98
:10417000E45A15EE900A3AE7F0EE675AFEEEE45A7A
:1041800015EE900A4BE767EEA57AFDEEE77A17EE9B
:10419000900A00B232E567EEA57AFDEEE77A17EEF7
:1041A000900A00B23FE5F0EE675AFEEEE05A15EED7
:1041B000901A4CE6F0EE675AFEEEE05A15EE900AC1
:1041C00030E6F0EE675AFEEEE05A15EE900AFDE595
:1041D000F0EE675AFEEEE05A15EE900A0AE667EE38
:1041E000A57AFDEEE77A17EE901A09B24AE567EE76
:1041F000A57AFDEEE77A17EE900A00B22CE5F0EE14
:10420000675AFEEEE45A15EE902A1FE467EEA57A8F
:10421000FDEEE77A17EE902A12B2FFF731BBF0EE0F
:10422000675AFEEEE45A15EE902AFFF7FDBBF0EE5A
:10423000675AFEEEE05A15EE902AFFF79BBBF0EEB0
:10424000675AFEEEE05A15EE902AFFF780BB67EE44
:10425000A57AFDEEE77A17EE902A12B2FFF724BB9B
:1042600082FF7F0000000030000000387E0080FFE9
:1042700030B5184C154685B0046004F1080EEC46C4
:104280000FC98EE80F00D4ED047AF5EEC07A8CE801
:104290000F00F1EE10FA1ADDB7EE006A94ED057A20
:1042A00027EE277AC6EE276A84ED0D7AC4ED0C6AF4
:1042B0006DB1204640F8185F03F0C6F8064903695F
:1042C0000020064A2162A262E36005B030BD0120F1
:1042D00005B030BD9C2200248021003080010030D8
:1042E00000680830704700BFB1F5807F03680A4658
:1042F00028BF4FF48072B1F5807F9A6094BF002090
:10430000012070470068183003F0FEB870B50468EB
:104310008AB0A369E1600BB304F118056FF0F413E0
:104320004FF60B722846ADF80C20CDE9013303F0AF
:104330008BF88446EE46E668BCE80F00AEE80F0056
:10434000BCE80F00AEE80F009CE803008EE8030015
:1043500069462846049602F07FFF38BBE06918B32F
:1043600004F11C056FF0F4134FF60B722846ADF8FC
:104370000C20CDE9013303F067F88446EE46E4688B
:10438000BCE80F00AEE80F00BCE80F00AEE80F007D
:104390009CE803008EE8030069462846049402F076
:1043A0005BFF003818BF01200AB070BD01200AB0C1
:1043B00070BD00BF30B5046883B00D46E3694BB1F2
:1043C000A3680020E26A616A9B00009004F11C006F
:1043D00003F03CF8A3680748A26A9B00216A00909A
:1043E00004F1180003F032F80020C4E9005003B0D3
:1043F00030BD00BFB536000810B4074B4FF07E51FA
:1044000030240022032019619C60D8605DF8044BC1
:104410005961C3E9062270479C220024F6EE007A17
:104420009FED166A20EE207A0160F7EE006A80EDBB
:10443000036A80ED020A27EE277AC6EE877AF4EE49
:10444000E67AF1EE10FA11DDF0EE667A4FF07E5169
:104450004FF0000C02760022C0ED017AC0F814C0C3
:10446000016143768276C0ED070A7047F4EEC67AA2
:10447000F1EE10FAEAD5F0EE467AE7E70000000028
:10448000DFED187AB6EE007AF7EE006A9FED166A55
:1044900060EE277A016080ED036A80ED020A67EE24
:1044A000877A86EEA77AB4EEE67AF1EE10FA10DD9E
:1044B000B0EE667A4FF0804C4FF07C514FF4807232
:1044C000012380ED017AC0F810C041610283837638
:1044D0007047B4EEC67AF1EE10FAEBD5B0EE467A3C
:1044E000E8E700BF6F12033B000000000268037E94
:1044F000128807EE902AFBEEC87A1BB1B7EE007A5D
:1045000077EE677AD0ED056A90ED047A77EEE67A79
:10451000437E67EE877A0BB1F1EE677A90ED030A7E
:1045200090ED017A77EEC07AA7EE270A80ED030AB4
:10453000704700BF837E80ED020AABB9D0ED077AE9
:1045400027EE800AF6EE007AB7EE007A20EE270A10
:10455000C7EE007AF4EEC77AF1EE10FA07DDF0EE5E
:10456000477AC0ED017A7047DFED067AE8E7F5EEAD
:10457000C07AF1EE10FAF4D5DFED037AC0ED017ADE
:10458000704700BF6F12033B0000000070B584B09D
:10459000002504461646ADF80C102B462A46039912
:1045A000009501F09DF8A582A67504B070BD00BF0E
:1045B00070B52DED028B84B0002615460446ADF88B
:1045C0000C1033460122039918300096B0EE408A51
:1045D00001F086F8B5FA85F3002226605B09666073
:1045E000A260257584ED048AA575637504B0BDECE1
:1045F000028B70BD20EE007ADFED067A27EE000A0E
:1046000060EE277A80ED020AFCEEE77AC0ED017ACF
:10461000704700BF00FF7F4790ED046AB7EE007A55
:10462000DFED0E5A0346D0ED036A1830C5EE867AE8
:1046300077EEA67AF4EEC77AF1EE10FAC8BF77EEFD
:10464000C77A10ED047AB4EEE77A40ED037AF1EE22
:1046500010FACCBF597D997D01F034B90000F042C9
:10466000704700BFF8B5144F3C68B4F5006F08D32D
:104670004FF40063114A42F224411C463B60A2F809
:10468000FE170F4D2B68012B0AD90C4E0D4D2246FB
:104690003146284600F02EF90028F8D13860F8BDE0
:1046A00022460649074800F025F90028F7D12B6873
:1046B000386001332B60F8BDD8220024DC220024AE
:1046C000D4220024DC2A002430B4164C216801B323
:1046D0004B1E154DE81810F801298C4619460A2A78
:1046E00001D00D2A02D15BB1013BF4E70CF10203CA
:1046F000B3F5006F11D34FF40063236030BC7047F3
:104700000122022323600D200A236854AB5430BCDD
:10471000704701220223044DF4E70CF101026146C7
:10472000F0E700BFD8220024DC22002410B5094C99
:1047300002460B46084821680844C1F5006115F09F
:10474000E5FB236818442060FFF7BEFFFFF78AFFF0
:1047500010BD00BFD8220024DC2200240FB400B515
:1047600083B004A951F8040B0191FFF7DFFF03B0F8
:104770005DF804EB04B0704710B5044600210A4808
:1047800000F032F8002C094B14BF02220022084826
:104790001A60FFF7E3FF0748FFF7E0FF0A20BDE8D4
:1047A000104003F025B800BFDC2A0024D4220024E6
:1047B0005CC301086CC30108064A0749074808B5ED
:1047C00012F0BEFD034A04490548BDE8084012F056
:1047D000B7BD00BF0000002461460008DC2A0024A9
:1047E000E02A0024704700BF012910B506D0022935
:1047F00015D051B1BDE8104008F002BE0A46344859
:1048000034490DF06FFEE8B1FEE7334B0A46334CF6
:10481000334934481C600DF065FE68B1FEE70122A3
:104820002C492B480DF05EFE00B1FEE72E492848CA
:104830000DF07CFEC0B1FEE72B492A480DF076FE54
:1048400060B1FEE7284922480DF070FE00B1FEE796
:1048500026491F480DF0E6FD08B3FEE7244921482C
:104860000DF0E0FDA8B1FEE7204919480DF0DAFD92
:1048700000B1FEE716480DF081FE024640B9164B26
:10488000164C174917481C600DF02CFE68B1FEE766
:10489000FEE714480DF072FE0028ABD0FEE70C488E
:1048A0000DF06CFE0028A5D0FEE70F490D480DF075
:1048B0003DFE00B1FEE70E490A480DF0B3FD00B120
:1048C000FEE708480DF05AFE002893D0FEE700BF2F
:1048D000C02D0024A80000249C300024E5470008D7
:1048E0008C000024E42A0024100100246800002425
:1048F00054000024084691B208B503F04DFA003880
:1049000018BF012008BD00BF014807F00FBE00BF5F
:1049100078610024014807F009BE00BF78610024D7
:10492000014807F003BE00BF7861002410B40023E3
:1049300083B00324018080F8503080F85120C0E912
:10494000014303B05DF8044B704700BF10B483B05F
:104950000180082A4FF00304BDF8101083824FF045
:1049600000030185BDF814109DF818C08187114619
:1049700028BF0821042A4460836080F850100BD8B7
:10498000022A16D802D10122C0E9062380F851C0BC
:1049900003B05DF8044B70470122C36103634364B5
:1049A0008261C262026480F851C003B05DF8044BBA
:1049B00070470122C36103638261C26280F851C003
:1049C00003B05DF8044B70472DE9F04FBE4F002453
:1049D000BE4D8DB0037007F140034260804616461D
:1049E0008946202221463846C5F88835C5F88475A1
:1049F000CDE90244CDE90444CDE90644CDE90844BB
:104A0000CDE90A4414F060FC2022214605F26250F0
:104A1000C5F85145C5F85545C5F85945C5F85D4532
:104A200014F052FC85F85065D8F8043085F86846D3
:104A3000002B62D005F5AA6A09F1500B264609EB56
:104A4000040128195222013614F030FC4FF0000303
:104A500027F8023B1BF804300AF8013F002B70D006
:104A6000D8F804304FF0010254349E4285F868268D
:104A7000E5D3974A082195F850350026C5F88C25CE
:104A80004FF4802293480027C5F8A4350023C5F8C9
:104A900090250122C5F89C1595F86816C5F894353F
:104AA00085F8A035C5F89825C0E9006700293ED0F3
:104AB000C5F8B82585F8A13585F8A835002298F8FD
:104AC0000030C5F8BC25C5F8C025002B40D0012218
:104AD00000200121013B85F8C4257F4AC2E900017D
:104AE000082B37D8DFE813F0BD00C200C700CC00A8
:104AF000D100D600DB00E100E800C5F89435F6B23D
:104B000085F8A0350020724B0021C5F8A465C5F8D2
:104B10008C354FF48023C5F890350123C5F89835BE
:104B20000823C5F89C3505F5B663C3E900010123E8
:104B300085F8A135002385F8A8350323C5F8B835D5
:104B4000BCE7D8F804305434B3423FF678AF90E76E
:104B500085F8C435614804F0CFF9034608B1FFBEBB
:104B6000FEE702A95D48029304F026FB04460028F4
:104B700075D1042340F2FF720A90CDE9082395F81D
:104B80005035002B00F0F58006234FF054090193B7
:104B900009FB045393F85130072B07D8DFE803F0E3
:104BA000595C5653504D4A040723079326B206EB2F
:104BB0004606C6EBC60605EB8608B700404600F081
:104BC000B1FC09FB045393F85030042B00F3AD8083
:104BD000022B00F3C08000F0BC802B19002283F868
:104BE000402515F8262098F80130002A7CD0022AAA
:104BF00000F08D80012A40F0B480012B00F0B380DA
:104C0000002B374B18BF0023059305A9019B3348A0
:104C1000069303F071FD002840F0AE80013495F852
:104C20005035E4B2A34240F2A4802E4B53F8243016
:104C30000193ADE706230793B8E705230793B5E78C
:104C400004230793B2E703230793AFE702230793F5
:104C5000ACE700230793A9E701230793A6E7FFBE6C
:104C6000FEE70320402142E9020173E707206021AB
:104C700042E902016EE70F20802142E9020169E763
:104C80001F20A02142E9020164E73F20C02142E940
:104C900002015FE77F20E02142E902015AE7FF209D
:104CA0004FF4807142E9020154E740F2FF104FF4E3
:104CB000907142E902014DE740F2FF304FF4A071DC
:104CC00042E9020146E700BF80410030A8300024DD
:104CD0000020024058360024783600243436002460
:104CE0000002B0257CC30108062B36D0072B3CD030
:104CF000022B49D0032B49D0002B4BD0012B47D09E
:104D0000042B49D0052B254B18BF00237CE7042B2F
:104D100025D0052B2BD08BB3012B31D0022B31D0DA
:104D2000032B1F4B18BF00236EE70323143705EB3B
:104D3000040B4FF0000A2F448BF8403538460AF137
:104D4000010A00F0EFFB9BF8403514375345F5DCC2
:104D500047E70123EAE70223E8E7124B54E7124B47
:104D600052E7002350E7114B4EE7114B4CE7114B34
:104D70004AE70DB0BDE8F08FFFBEFEE70E4B43E7FC
:104D80000E4B41E70E4B3FE70E4B3DE70E4B3BE72B
:104D90000E4B39E70E4B37E70E4B35E70000B84FA7
:104DA000002090360800900C1000C0102000F01475
:104DB0008000501D000180210004002A0008302ED0
:104DC000001060320040C03A0080F03E00005247C0
:104DD000000021430000844B38B5094C40F2FF72BB
:104DE0004FF0011104F28C55284604F093F994F821
:104DF0005025D4F884152846BDE8384003F0F2BEAB
:104E0000A8300024034B0F29D3F8840598BF00EB8A
:104E100041007047A8300024044B0F29D3F88805BF
:104E200098BF00EB011000EB42007047A83000244F
:104E3000064B0F29D3F8883598BF03EB011333F8DD
:104E4000123000EE103ABBEEC80A7047A8300024BA
:104E5000244B02689A4200D07047234A002323481B
:104E6000D2F8D81030B5224C41F0200183B0C4F8FC
:104E7000F0050920C4F8F83504F5BE65C4F8F4055A
:104E80004FF48060C2F8D8104FF40061D2F8D820F7
:104E9000C4F8000694F8680602F02002C4F8FC3555
:104EA00098420192C4F804164FF40051C4F8103629
:104EB0002846C4F81436019B14BF00234FF48073B6
:104EC000C4F80816C4F80C3604F090FD08B1FFBE13
:104ED000FEE704F28C53C4F8D855C4F8283603B062
:104EE00030BD00BF00200240004402584000024094
:104EF000A8300024014805F0C1BB00BF983600244B
:104F000002682DE9F84F504B9A4201D0BDE8F88F66
:104F10004E4D95F86836002BF8D095F85035002B9B
:104F20007BD0002405F13C0905F2625605F5AA671D
:104F3000A04613E003F0010117F811BCA9F1280005
:104F400000F0C0FCBBF1010F25D895F850350134B5
:104F500009F154090236A2B293422BD917F8012F56
:104F6000002AF4D0D5F884350021327833F81400C3
:104F7000D5F8883503EB041323F812003388013386
:104F80009BB233805FFA83FA3A789A42D2D88A4643
:104F9000A6F80080D0E7CAF34001A9F1140000F0A0
:104FA00091FCBBF1020FCAF38001CED0484600F05D
:104FB00089FCCAE7002395F868062549092298422A
:104FC000C5F8F8354FF48060C5F8F015C5F8F4253C
:104FD0004FF400614FF40052C5F8FC3508BF4FF4A0
:104FE0008073C5F80006C5F80416C5F80826002227
:104FF0001848C5F80C36C5F81026C5F8142604F074
:10500000F5FC08B1FFBEFEE795F85025D5F88415EC
:105010001148BDE8F84F03F0E5BD0D4909224FF4F2
:105020008060C5F8F835C5F8F0154FF40061C5F893
:10503000F4254FF40052C5F8FC35C5F80006C5F854
:105040000416C5F80826D2E700200240A830002444
:10505000400002409836002434360024704700BFD8
:105060000C4B4FF60B71002203F5A8601980DA6033
:1050700099821A6219855A6399879A64C3E9012251
:10508000C3E90622C3E90B22C3E910225433984234
:10509000ECD17047A8300024504B02689A4200D0EF
:1050A00070474F4BD3F8E81030B541F000514D4CEC
:1050B00087B0D4F85421C3F8E810D3F8E81001F011
:1050C000005104910499D3F8E01041F00101C3F8B4
:1050D000E010D3F8E03003F001030593059B32F0B4
:1050E00002033DD0013A012A6CD9D4F85831012B82
:1050F0000AD000223620114604F0D8F8362007B036
:10510000BDE8304004F010B9D4F8543133F0020255
:1051100035D0013B012BECD8442240233249334D9A
:10512000C4F88C1000212846C4F8B010C4E9242328
:1051300000224FF48063C4E926234FF400624FF449
:105140000053C4E928234FF480724FF48033C4E93C
:105150002A2304F04BFC88B9E560C4F8C440C8E7D2
:105160004FF48061032204F5BA700093ADF80C107F
:10517000039900F0B5FAD4F85421B3E7FEE71C4BCD
:10518000A2634322636140231A4DC4E9062300222F
:105190004FF480632846C4E908234FF400624FF4BB
:1051A0000053C4E90A234FF480724FF48033C4E9FA
:1051B0000C2304F01BFC20B9D4F85431A560E4643E
:1051C000A7E7FEE74FF4A061002303220A48ADF8E9
:1051D0000C100399009300F083FA86E700740040F6
:1051E000004402581837002428040240A437002441
:1051F000100402402C370024A0380024014805F098
:105200003DBA00BF2C370024014805F037BA00BF73
:10521000A437002410B5054C204604F001FA04F52B
:105220008270BDE810400BF091BD00BF183700241C
:10523000164BD3F85421D3F86411022A4FEA5101D6
:1052400030B583B00CD088B2D3F86821D3F8704160
:1052500002EB400300930CB16846A04703B030BD99
:10526000D3F86C21002AF9D088B2D3F86841D3F87A
:10527000705104EB400402EB4002CDE90042002DE6
:10528000ECD06846A84703B030BD00BF18370024F3
:10529000134BD3F85421022A10B582B00CD0D3F8A6
:1052A0006811D3F87021009122B1D3F864116846D7
:1052B0004908904702B010BDD3F86C21002AF9D0FC
:1052C000D3F86811D3F87041CDE90012002CF1D069
:1052D000D3F8641168464908A04702B010BD00BF6A
:1052E00018370024094BD3F85421022A0DD000B5F9
:1052F000D3E95B1283B0019122B1D3F8641101A804
:105300004908904703B05DF804FB70471837002444
:105310000B4BD3F85421022A10D0D3F8641110B5E6
:10532000D3E95B24C1F34F0382B0490802EB430386
:1053300001930CB101A8A04702B010BD704700BF97
:105340001837002430B58C463A4C3B4D8DB0046084
:1053500004F5A87EBCE80F00AEE80F00DCF80030D2
:1053600020462560CEF8003004F06CF80023D4F815
:1053700058510393CDB11622012D049218D000226A
:10538000D4F860110125D4F854319142CDE9065288
:1053900018BF0222059233F0020235D0013B012BE7
:1053A0003DD9002528460DB030BD02230493E6E721
:1053B000224A0093C4F80C31C4F81431C4F8042113
:1053C000C4F81C31CDE9013302F0AAFBD4F8503106
:1053D0004BF68032C4F80851002B08BF1346B0FBCF
:1053E000F3F304F58270C4F810310BF071FA002861
:1053F000D8D120230290694604F5827000930BF007
:105400004FFD0028BBD0CDE703A90A4804F03CF9C2
:105410000028C7D1D4F85431013B012BC1D8102248
:1054200003A9044804F030F9051E18BF01252846D9
:105430000DB030BD1837002400740040001000404B
:1054400070B504681D4682B01046D4F85831012B5F
:1054500003D0D4F85431022B24D1D4F85C31069A0D
:10546000002BC4F86811C4F870212B460CBF082625
:105470000026C4F86C010A46C4F864510021204695
:10548000009603F0F5FFD4F86C212B46102120463E
:10549000009603F0EDFF04F582700BF0CFFA0020C8
:1054A00002B070BD012002B070BD00BF10B504682D
:1054B000D4F85831012B09D1D4F8543133F002011A
:1054C00006D0013B012B0BD9002010BD012010BDDF
:1054D000204604F059F8D4F85431013B012BF3D89D
:1054E0001021204604F050F8002010BD00000000FC
:1054F0009FED097B0A4B00224FF60B71C3F8802108
:10550000C3F88C21A3F87411A3F8881183ED5E7B96
:10551000C3E96422704700BF0000000000000000E3
:105520001837002403780B2B2DD042780F2A2AD865
:105530004168022910B590B03ED0032902D001295C
:1055400000D000210C918168012902D0022918BFE6
:1055500000210D91C168022904D0032902D001293C
:1055600018BF00210A2B0E910ED85B4C04EB83244C
:1055700004610A2B17D8DFE803F009A0928476684B
:105580005A4C3E30220070470024F1E7534BD3F8C9
:10559000E01041F00101C3F8E010D3F8E03003F06F
:1055A00001030093009B01230BA9204693400B931A
:1055B00005F0B6FB10B010BD11210C91C3E7474BAD
:1055C000D3F8E01041F48061C3F8E010D3F8E03084
:1055D00003F480630A930A9BE5E7404BD3F8E0109D
:1055E00041F40071C3F8E010D3F8E03003F4007325
:1055F0000993099BD7E7394BD3F8E01041F4807148
:10560000C3F8E010D3F8E03003F480730893089BEC
:10561000C9E7324BD3F8E01041F08001C3F8E01045
:10562000D3F8E03003F080030793079BBBE72B4BD5
:10563000D3F8E01041F04001C3F8E010D3F8E030B7
:1056400003F040030693069BADE7244BD3F8E0102C
:1056500041F02001C3F8E010D3F8E03003F020035C
:105660000593059B9FE71D4BD3F8E01041F0100117
:10567000C3F8E010D3F8E03003F010030493049B68
:1056800091E7164BD3F8E01041F00801C3F8E010A1
:10569000D3F8E03003F008030393039B83E70F4B39
:1056A000D3F8E01041F00401C3F8E010D3F8E03083
:1056B00003F004030293029B75E7084BD3F8E01054
:1056C00041F00201C3F8E010D3F8E03003F0020328
:1056D0000193019B67E700BF000002580044025895
:1056E00010B592B0ADF804100180C9B2149C0B291A
:1056F000C460C0E901233FD090F801C0BCF10F0F96
:105700003AD8022A3FD0032A02D0012A00D0002230
:105710000E92012B02D0022B18BF0023022C0F93F4
:105720002CD0032C2AD0012C28D000230A29109336
:1057300027D85C4A02EB812202610A2914D8DFE8EB
:1057400001F0A39587796B5D4F4133250600564BD9
:10575000D3F8E01041F48061C3F8E010D3F8E030F2
:1057600003F480630C930C9B01230DA9104603FAEC
:105770000CF30D9305F0D4FA12B010BD0A29109461
:10578000D7D90022D8E711220E92C2E7464BD3F8B0
:10579000E01041F40071C3F8E010D3F8E03003F4F6
:1057A00000730B930B9BDFE73F4BD3F8E01041F402
:1057B0008071C3F8E010D3F8E03003F480730A93EB
:1057C0000A9BD1E7384BD3F8E01041F08001C3F8D1
:1057D000E010D3F8E03003F080030993099BC3E79E
:1057E000314BD3F8E01041F04001C3F8E010D3F89A
:1057F000E03003F040030893089BB5E72A4BD3F849
:10580000E01041F02001C3F8E010D3F8E03003F0DD
:1058100020030793079BA7E7234BD3F8E01041F041
:105820001001C3F8E010D3F8E03003F01003069342
:10583000069B99E71C4BD3F8E01041F00801C3F830
:10584000E010D3F8E03003F008030593059B8BE7E5
:10585000154BD3F8E01041F00401C3F8E010D3F881
:10586000E03003F004030493049B7DE70E4BD3F870
:10587000E01041F00201C3F8E010D3F8E03003F08B
:1058800002030393039B6FE7074BD3F8E01041F04B
:105890000101C3F8E010D3F8E03003F001030293F4
:1058A000029B61E7000002580044025808B501213C
:1058B00043780069994089B205F034FC003818BF7C
:1058C000012008BD01230A464178006903FA01F16D
:1058D00089B205F02DBC00BF10B5002386B012229E
:1058E00004460493CDE902230368022B1FDC002B3E
:1058F00001DB0423059323790A2B1FD8114800EB01
:1059000083206279012301A99340019305F008FAED
:10591000A3790A2B14D80B4800EB8320E2790123EA
:1059200001A99340019305F0FBF906B010BD032BCC
:10593000E1D10623059323790A2BDFD90020E0E784
:105940000020EBE700000258634A0368934210B559
:105950008CB028D0614A934258D0614A934200F0FB
:105960009480604A934201D00CB010BD5E4C5F48F9
:10597000D4F8E03043F00203C4F8E030D4F8E0306B
:1059800003F002030A930A9BFFF7A6FFD4F8F43052
:1059900043F08003C4F8F430D4F8F43003F080030B
:1059A0000B930B9BE0E7504C5148D4F8E03043F0A8
:1059B0000203C4F8E030D4F8E03003F002030193AE
:1059C000019BFFF789FFD4F8E83000221F2043F441
:1059D00000131146C4F8E830D4F8E83003F400139B
:1059E0000293029BD4F8D83043F00103C4F8D830B6
:1059F000D4F8D83003F001030393039B03F056FC63
:105A00001F200CB0BDE8104003F08EBC364C394866
:105A1000D4F8E03043F08003C4F8E030D4F8E0304C
:105A200003F080030493049BD4F8E03043F00203B6
:105A3000C4F8E030D4F8E03003F002030593059B8E
:105A4000FFF74AFFD4F8E8300022212043F4800316
:105A50001146C4F8E830D4F8E83003F48003069324
:105A6000069BD4F8D83043F00103C4F8D830D4F8FA
:105A7000D83003F001030793079B03F017FC2120A4
:105A80000CB0BDE8104003F04FBC1B48FFF724FFEB
:105A9000154B00224820D3F8E840114644F4000496
:105AA000C3F8E840D3F8E84004F400040894089CE4
:105AB000D3F8D84044F00104C3F8D840D3F8D83024
:105AC00003F001030993099B03F0F0FB48200CB09D
:105AD000BDE8104003F028BC0054004000580040CE
